:020000040000FA
:10000000887C00206D020000810200008302000055
:10001000850200008502000085020000000000004B
:100020000000000000000000000000009D02000031
:100030008502000000000000F102000091060000AF
:100040008502000085020000850200008502000094
:1000500085020000DF0600002791000085020000F5
:100060008502000085020000850200008502000074
:100070008502000085020000D99B00008502000077
:100080008502000085020000850200008502000054
:100090008502000085020000850200008502000044
:1000A0008502000085020000850200008502000034
:1000B0008502000085020000850200008502000024
:1000C0008502000087920000850200008502000082
:1000D0008502000085020000850200008502000004
:1000E0008502000000000000000000008502000002
:1000F00085020000850200008502000085020000E4
:1001000085020000850200008502000085020000D3
:1001100000000000000000008502000085020000D1
:10012000850200008502000085020000DD940000C9
:10013000E7960000139800002B990000139B000025
:1001400000000000000000000000000000000000AF
:100150008502000085020000850200008502000083
:10016000000000000000000000000000000000008F
:10017000000000000000000000000000000000007F
:10018000000000000000000000000000000000006F
:10019000000000000000000000000000000000005F
:1001A000000000000000000000000000000000004F
:1001B0008502000085020000850200008502000023
:1001C0008502000085020000850200008502000013
:1001D0008502000085020000850200008502000003
:1001E000850200008502000085020000000000007A
:1001F000000000008502000085020000850200006A
:1002000085020000850200000000000000000000E0
:1002100085020000850200008502000085020000C2
:1002200085020000850200008502000085020000B2
:1002300085020000850200008502000085020000A2
:100240008502000085020000850200008502000092
:100250008502000085020000850200008502000082
:100260008502000085020000850200004EF68850DD
:10027000CEF20000016841F47001016000F004B8A2
:10028000FEE7FEE7FEE70000DFF80CD00DF0EEFA27
:1002900000480047AB040000887C00202A4B196806
:1002A0000868B0E8F04F80F30988BFF36F8F4FF014
:1002B000000080F3118870470000000006480068C5
:1002C000006880F3088862B661B6BFF34F8FBFF352
:1002D0006F8F00DF00BF00BF08ED00E0DFF80C000B
:1002E000016841F470010160704700BF88ED00E0D3
:1002F000EFF30980BFF36F8F134B1A681EF0100FD6
:1003000008BF20ED108A20E9F04F106008B44FF0CC
:10031000500080F31188BFF34F8FBFF36F8F0BF046
:100320003AFA4FF0000080F3118808BC1968086899
:10033000B0E8F04F1EF0100F08BFB0EC108A80F349
:100340000988BFF36F8F70470C060020EFF305801C
:10035000704700000138FDD170470000EFF31080B6
:1003600072B67047EFF310807047EFF3108062B6FB
:10037000704730BF704780F311887047EFF31180EA
:10038000704700001FB504460CF0C1FD09F0BEFC2B
:100390005F49086000200123CDE900300290034648
:1003A00096225CA103905C480AF0F5FD5B49086069
:1003B000084601685AA00DF0B9FF00200623CDE9D8
:1003C0000030029003464FF4FA7257A10390584848
:1003D0000AF0E1FD5149086000200523CDE9003015
:1003E000029003464FF4FA7252A1039054480AF067
:1003F000D2FD4A4801684AA00DF098FF002004236E
:10040000CDE90030029003464FF4FA724DA10390FB
:100410004E480AF0C0FD414908600846016840A006
:100420000DF084FF00200423CDE900300290034644
:100430004FF4FA7246A1039047480AF0ACFD3749E1
:1004400008600846016836A00DF070FF0020042304
:10045000CDE90030029003464FF4FA723FA10390B9
:1004600041480AF098FD2D490860084601682CA013
:100470000DF05CFF00200423CDE90030029003461C
:100480004FF4FA7239A103903A480AF084FD2349E7
:1004900008600846016822A00DF048FF3648006851
:1004A0000AF029FE0CF056FD1FBD1FB500F08EF8B6
:1004B00007F096FA05F09FFF07F0F2FB07F00CFD3E
:1004C00003F0C0FA08F0C0FD08F06EFE08F062FF0D
:1004D00009F070F809F06CF909F0F6F909F080FA02
:1004E0002649274803F090FB0020234A0123CDE949
:1004F0000120009303900346802222A1AFF27B10DB
:100500000AF049FD0BF0D5FA00BFFEE700BFFEE799
:10051000040000204C454400A10A0000080000200F
:10052000256C640A0000000053454E534F5253009F
:10053000C12F000053544142494C495A45520000D2
:10054000753900004445425547455200B125000029
:1005500052454D4F544552002D2A000055415254EA
:100560004445434F44450000BB2600004155544FCD
:10057000464C5900991F0000000000208015002003
:10058000E814002073746172745F7461736B00000F
:1005900010B531480DF070FE01200DF025FC40F241
:1005A00001400DF021FC2D480DF066FE05212C4880
:1005B0000DF0B9FE03214FF040200DF061FC294AF7
:1005C0004FF4E131002000F08FF810BD10B526483F
:1005D0000DF0B8FD4FF08071496C086E80472349DB
:1005E0000860084600684FF47A71B0FBF1F44FF0F0
:1005F0008070806B4169204688474FF08071896B1D
:10060000C86880474FF08071896B486880474FF019
:100610008071896F086980474FF08070406C8169F4
:10062000134888474FF08070806C01683F208847EE
:100630004FF08071496D486880474FF08070406D81
:10064000016A0C488847FFF7A3FF10BD014600BFB1
:100650000020704770470000000800F0001800F00C
:1006600000C000400024F400400500C10C00002040
:10067000000C00F00008002010B5012118480DF012
:1006800043FE10BD10B5012115480DF03DFE10BD13
:1006900010B514480068401C124908600BF0E7FCD4
:1006A000012801D00CF06EFC10BD10B50BF0DFFC82
:1006B000012802D00BF064FA10BD0A480068FBE77D
:1006C00010B54FF08071496DC8688047044624B169
:1006D0004FF08071496D0869804710BD70477047C1
:1006E00000000340140000202DE9F04104460D46AF
:1006F0001646E14A52F824004FF08072526C11699C
:10070000884708B9BDE8F081DC4850F82400DC498E
:100710000860D94A52F824004FF08072526C9169F7
:1007200088474FF08070406960232A463146476908
:10073000D3480068B8474FF080704069C169D0481D
:100740000068884700BFDDE770B505460E46002407
:1007500013E0285D0A2807D14FF0807040690D2111
:100760000268C74800689047295D4FF08070406973
:100770000268C34800689047641CB442E9D320462D
:1007800070BD2DE9F04106460F4600257F1E32E080
:100790004FF080704069816BB9480068884744B267
:1007A000082C06D125B10321B6A0FFF7CDFF6D1EA1
:1007B00021E00A2C06D1B448007818B10020B249D3
:1007C000087018E00D2C03D00A2C01D01B2C05D189
:1007D0000D2C02D10120AC4908700DE0BD4209D2B8
:1007E00074556D1CE1B24FF0807040690268A448F6
:1007F0000068904700BFCBE700BF00207055022182
:10080000A2A0FFF7A1FF2846BDE8F08110B54FF088
:1008100080704069816B9A4800688847C0B210BDFB
:100820002DE9F34F85B0064612E1002400E0641C78
:10083000305D252802D0305D0028F8D121463046B1
:10084000FFF782FF264430782528EDD1761C00255D
:100850004FF0200B00BF16F8011B382932D014DCF2
:1008600033292AD008DC25296FD0302922D031291C
:1008700021D032296AD11FE034291FD035291ED05A
:1008800036291DD03729F5D11BE0692935D008DC80
:10089000392918D0582972D0632922D06429E9D186
:1008A0002AE070296CD073293CD0752958D078295A
:1008B000E0D163E000BF00BF00BF00BF00BF00BFCA
:1008C00000BF00BF00BF16F8010C302801D105B9E8
:1008D000834605EB8500450016F8010C30380544C9
:1008E000B9E70698006804900698001D069001215B
:1008F00004A8FFF729FFAAE000BF0698006804904B
:100900000698001D06904FF000080498002805DAAC
:100910000498404204904FF0010901E04FF00009B3
:100920000A2739E0069850F804AB0690002400E04E
:10093000641C1AF804000028FAD121465046FFF73B
:1009400003FFA5420BD92D1B05E076E07AE00121DB
:100950004FA0FFF7F9FE281EA5F10105F7D176E0BB
:100960000698006804900698001D06904FF0000855
:100970000A274FF000090FE001E001E000BF00BFCF
:100980000698006804900698001D06904FF0000835
:1009900010274FF0000900BF012401E07C436D1EC9
:1009A00004FB07F00499884205D804FB07F0B0FB6C
:1009B000F7F0A042F2D0B9F1000F00D06D1EB9F1EE
:1009C000000F0AD0BBF1300F07D12D22404608F1AD
:1009D00001080DF800204FF00009012D0BD9102D52
:1009E00009D26D1E05E0404608F101080DF800B07F
:1009F0006D1E002DF7D1B9F1000F05D02D22404614
:100A000008F101080DF8002010E00498B0FBF4F0A4
:100A1000B0FBF7F107FB11001E4909680A5C40466C
:100A200008F101080DF80020B4FBF7F4002CECD11C
:100A300041466846FFF788FE09E0701E0121FFF776
:100A400083FE04E0052114A0FFF77EFE00BF00BF77
:100A5000307800287FF4E9AE07B0BDE8F08F0FB41E
:100A600008B503A8009000990298FFF7D9FE00206E
:100A7000009001B05DF814FB580401004C04010023
:100A800018000020082008001C0000200D0A0000AB
:100A900020000000480401004552524F520000005F
:100AA000002208213D480DF0F9F976E014200AF003
:100AB00038FD3B488079002857D13A4890ED130A19
:100AC000B5EEC00AF1EE10FA02DD90ED130A04E073
:100AD000344890ED130AB1EE400AF0EE080AB4EE85
:100AE000E00AF1EE10FA16DC2E4890ED010AB5EEA0
:100AF000C00AF1EE10FA02DD90ED010A04E0294887
:100B000090ED010AB1EE400AF0EE080AB4EEE00AF8
:100B1000F1EE10FA14DD0022022120480DF0BEF99A
:100B2000082211461D480DF0B9F9042211461E484D
:100B30000DF0B4F90422114618480DF0AFF92CE07D
:100B40000222114615480DF0A9F900220821134888
:100B50000DF0A4F90422114613480DF09FF9042268
:100B600011460E480DF09AF917E00D4880790128DA
:100B700013D1042211460C480DF090F902221146BF
:100B800006480DF08BF90822114604480DF086F94D
:100B90000022042101480DF081F987E70070004030
:100BA000B4120020E8010020006000400020FE494F
:100BB00008600B21FC4802680068401CFA4B186072
:100BC000FA4840F8221040F6B8311846026800682A
:100BD000401C1860F54840F82210002118460268B1
:100BE0000068401C1860F14840F8221040F6B83107
:100BF000184602680068401C1860EC4840F8221053
:100C00000422184601680068401C1860E74840F854
:100C1000212040F6B831184602680068401C186070
:100C2000E24840F822100C21184602680068401C77
:100C30001860DE4840F8221040F6AC5218460168B1
:100C40000068401C1860D94840F82120032118464C
:100C500002680068401C1860D44840F82210D4494B
:100C6000184602680068401C1860D04840F82210FE
:100C70000D21184602680068401C1860CB4840F8F7
:100C8000221041F27071184602680068401C18601A
:100C9000C64840F822101221184602680068401C1D
:100CA0001860C24840F8221049F6404218460168D0
:100CB0000068401C1860BD4840F8212002211846F9
:100CC00002680068401C1860B84840F82210B84A12
:100CD000184601680068401C1860B44840F821209C
:100CE0000E21184602680068401C1860AF4840F8A2
:100CF00022104FF4FA61184602680068401C186020
:100D0000AA4840F822101321184602680068401CC7
:100D10001860A64840F822104FF4FA61184602689D
:100D20000068401C1860A14840F8221003211846B2
:100D300002680068401C18609C4840F822109C49DA
:100D4000184602680068401C1860984840F8221055
:100D50000D21184602680068401C1860934840F84E
:100D6000221041F27071184602680068401C186039
:100D70008E4840F822101221184602680068401C74
:100D800018608A4840F8221049F640411846026827
:100D90000068401C1860854840F82210022118465F
:100DA00002680068401C1860804840F822108049A2
:100DB000184602680068401C18607C4840F8221001
:100DC0000F21184602680068401C1860774840F8F8
:100DD00022104FF4FA61184602680068401C18603F
:100DE000724840F822101021184602680068401C22
:100DF00018606E4840F8221049F6404118460268D3
:100E00000068401C1860694840F8221011221846FA
:100E100001680068401C1860644840F8212049F6C9
:100E20004042184601680068401C18605F4840F85E
:100E300021200121184602680068401C18605B48A8
:100E400040F8221042F21071184602680068401CF7
:100E50001860564840F8221018460068801E554910
:100E60000860002019460860704700B500204E4910
:100E70000860FFF79BFE00204F49087000BD012865
:100E800003D14E4991ED000A7047022803D14B4926
:100E900091ED000AF8E703282ED1484991ED010AA7
:100EA000D1ED000A30EE600A454981ED000A434960
:100EB00091ED020AD1ED010A30EE600A404981ED60
:100EC000010A91ED000AD1ED010AB4EEE00AF1EE5B
:100ED00010FA03DD394991ED000AD5E7384991ED63
:100EE000000AD1ED010AB4EEE00AF1EE10FA06D2E2
:100EF000324991ED020AC7E79FED320AC4E700BF0D
:100F0000C2E710B52DED048B28482749096850F831
:100F10002100142868D2DFE810F07600E506C5024B
:100F2000F1009B00670067006700670067006700CB
:100F30001400C400C0015F04D2047505CB051D0276
:100F4000E204214800680B282BD0204890ED910A3C
:100F500080ED900A90EDA30A80EDA20A90ED250A9B
:100F600080ED240ABFEE000A194880ED000ABFEEAA
:100F7000000A184880ED000A9FED120A164880ED1D
:100F8000000A9FED100A154880ED000A9FED0D0A3A
:100F9000134880ED590A0D4890ED250A114880ED5F
:100FA000000A0249004820E034000020000C002024
:100FB00070110100380000207B000020200F00206D
:100FC000B010002000000000AC000020E80100206C
:100FD00080000020840000208C0000208800002079
:100FE0004013002064000020F5E30068401C51F825
:100FF0002000142803D30120FE49087002E00020DD
:10100000FC4908704DE20121FB4880F82D100021B9
:1010100080F82D10B7EE000AF84880ED6C0A90EDCC
:101020006D0ADFEDF70AB4EEE00AF1EE10FA0EDB1E
:1010300090ED6D0ADFEDF30AB4EEE00AF1EE10FA7E
:1010400005D8F14AF1480068401C42F82010D9E761
:10105000EA4890ED250AEE48D0ED000A30EE600A2D
:10106000EC4880ED000A0021E34880F82E100121B1
:1010700080F82D10002180F82D100420DE4981F821
:101080002C00BFEE000AE44880ED000ABFEE000A23
:10109000E24880ED000A1FED350AE14880ED000AC4
:1010A000B0E7D64890ED250AD948D0ED000A30EED9
:1010B000600AD84880ED000ADA4800680C2812D08F
:1010C000CE4890ED240ADFEDD80A30EE600A80EDBC
:1010D000240ABFEE000AD04880ED000ABFEE000AE5
:1010E000CE4880ED000A0021C34880F82D1004216D
:1010F00080F82E100020CD49086083E7BE48B0F884
:10110000400068B9CA4890ED000AF7EE000A30EED8
:10111000200A80ED000A0121B74880F82D1008E070
:101120001FED580AC24880ED000A0021B24880F83D
:101130002D10B24890ED250AB548D0ED000A30EEEA
:10114000600AB44880ED000A90ED000ADFEDB90AAC
:10115000B4EEE00AF1EE10FA08DD90ED000ADFEDE2
:10116000B60A30EE600A80ED000A11E0A94890ED61
:10117000000ADFEDB20AB4EEE00AF1EE10FA07D28F
:1011800090ED000ADFEDAC0A30EE200A80ED000A97
:10119000BFEE000AA04880ED000A9748B0F9400071
:1011A0001E2805DDB3EE0E0A9D4880ED000A19E009
:1011B0009148B0F9400010F11E0F05DABBEE0E0A9F
:1011C000974880ED000A0DE08B48B0F9400000EE32
:1011D000100AB8EEC00ADFED9A0A20EE200A904805
:1011E00080ED000A8448B0F8440001282FD19048CF
:1011F00090ED000ADFED930AB4EEE00AF1EE10FA8A
:1012000025DDBFEE000A854880ED000ABFEE000A2A
:10121000814880ED000A7F4890ED000A8A488349A2
:10122000096800EB810080ED000A804800683228E0
:1012300004D27E480068401C7C4908601FED9F0A6C
:101240007B4880ED000A04216B4880F82E1071481D
:1012500090ED000ADFED740AB4EEE00AF1EE10FA48
:101260001ADD0021684A69480068401C42F82010D5
:101270000121614880F82D10002180F82E105F4870
:1012800090ED250A714880ED000A68490878FFF75B
:10129000F6FD6E4880ED000AB4E6624800680D284D
:1012A0000ED0BFEE000A5C4880ED000ABFEE000AD7
:1012B0005A4880ED000A1FEDBD0A594880ED000A2A
:1012C0005A490878FFF7DBFD5148D0ED000A30EEAF
:1012D000200A5F4880ED000A90ED000ADFED550A14
:1012E000B4EEE00AF1EE10FA08DD90ED000ADFED51
:1012F000520A30EE600A80ED000A17E0544890ED83
:10130000000ADFED4E0AB4EEE00AF1EE10FA08D260
:1013100090ED000ADFED480A30EE200A80ED000A69
:1013200004E04B4890ED000A80ED000A484890ED3B
:10133000000A324880ED240A00212F4880F82D1041
:1013400080F82E1039490878FFF799FD3F4880ED65
:10135000000A57E60621284880F82E10002180F860
:101360002D10BFEE000A2C4880ED000A2248B0F98B
:1013700040001E2805DDB3EE0E0A294880ED000A64
:1013800015E01D48B0F9400010F11E0F05DABBEE64
:101390000E0A234880ED000A09E01748B0F9400022
:1013A00000EE100AB8EEC00A1D4880ED000A12488F
:1013B000B0F8400070B91048B0F84400012809D1D5
:1013C000BAEE080A154880ED000ABFEE000A12487E
:1013D00080ED000A0848B0F93800322809DD0648D7
:1013E000B0F93800502804DA1A480068401C19493E
:1013F000086031E07A00002018160020E801002083
:101400003333733F6666863F000C002034000020B3
:10141000640000206800002080000020840000207C
:1014200088000020AC00002000004842700000202E
:101430006C000020000034430000B443000034C3BB
:101440006666663F0000A042200F00205400002086
:101450005800002044000020F848B0F93C0046281D
:1014600009DDF648B0F93C005A2804DAF44800686F
:10147000401CF3490860F3480068C82811D9F048B7
:10148000006864280DD90022EF49F0480068401C2C
:1014900041F820200121E94880F82D10002180F832
:1014A0002E100BE2EA4890ED000AB5EEC00AF1EE0C
:1014B00010FA04DD0821E14880F82E100BE0E44822
:1014C00090ED000AB5EEC00AF1EE10FA03D807213C
:1014D000DA4880F82E10DF4890ED250ADE48D0ED7E
:1014E000000A30EE600ADD4880ED000A90ED000A47
:1014F0005FED300AB4EEE00AF1EE10FA08DD90ED8F
:10150000000A5FED330A30EE600A80ED000A11E058
:10151000D24890ED000A5FED370AB4EEE00AF1EE32
:1015200010FA07D290ED000A5FED3D0A30EE200A76
:1015300080ED000AC84890ED000ADFEDC90A30EEE0
:10154000200AC84880ED000A90ED000A5FED470AC6
:10155000B4EEE00AF1EE10FA08DD90ED000A5FED5E
:101560004A0A30EE600A80ED000A17E0BD4890EDAF
:10157000000A5FED4E0AB4EEE00AF1EE10FA08D26E
:1015800090ED000A5FED540A30EE200A80ED000A6B
:1015900004E0B44890ED000A80ED000AAE4890EDFA
:1015A000000ADFEDB10A30EE200AB04880ED000AF3
:1015B00090ED000A5FED610AB4EEE00AF1EE10FA78
:1015C00008DD90ED000A5FED640A30EE600A80ED00
:1015D000000A17E0A54890ED000A5FED680AB4EE36
:1015E000E00AF1EE10FA08D290ED000A5FED6E0A03
:1015F00030EE200A80ED000A04E09C4890ED000ADD
:1016000080ED000A9A480068401C99490860012052
:101610008A4981F82C000021884880F82D108C48D8
:1016200090ED000AB5EEC00AF1EE10FA05DDB1EE5C
:101630000C0A904880ED000A0CE0854890ED000A05
:10164000B5EEC00AF1EE10FA04D8B9EE0C0A8948DA
:1016500080ED000A7948B0F9380000EE100AB8EEC3
:10166000C00AF3EE0E0A30EE600A10EE101A0846B9
:101670000BF062FF41EC190B9FED7F0B53EC102B2D
:101680000BF05BFE41EC180B0BF09AFF7C490860F5
:10169000084690ED000AF2EE000AB4EEE00AF1EE20
:1016A00010FA04DDB2EE000A80ED000A13E074487F
:1016B00090ED000AFAEE000AB4EEE00AF1EE10FA3C
:1016C00004D2BAEE000A80ED000A04E06C4890ED06
:1016D000000A80ED000A5948B0F940001E2805DDD7
:1016E000B3EE0E0A674880ED000A1EE05348B0F9D9
:1016F000400010F11E0F05DABBEE0E0A614880EDC6
:10170000000A12E04D49B1F940000BF0F7FE41EC40
:10171000190B9FED5D0B53EC102B0BF00EFE41EC03
:10172000180B0BF04DFF57490860494890ED000A2F
:10173000B5EEC00AF1EE10FA22DD484890ED000A3D
:10174000DFED530AB4EEE00AF1EE10FA42DD0021BB
:101750003D4A3E480068401C42F8201001213748AD
:1017600080F82D10032180F82E10BFEE000A4148AA
:1017700080ED000ABFEE000A414880ED000A29E032
:10178000334890ED000AB5EEC00AF1EE10FA21D20E
:10179000324890ED000ADFED3F0AB4EEE00AF1EEC8
:1017A00010FA17D20021284A28480068401C42F845
:1017B00020100121214880F82D10022180F82E10E0
:1017C000BFEE000A2B4880ED000ABFEE000A2C484D
:1017D00080ED000A97E395E3BFEE000A254880ED0F
:1017E000000ABFEE000A264880ED000A9FED2A0A93
:1017F000244880ED000A0020284908609FED260A51
:10180000274880ED000A9FED240A80ED010A9FED34
:10181000220A80ED020A00200A490860084908608F
:101820000B4890ED000AB5EEC00AF1EE10FA39DD72
:101830000521024880F82E1040E000001816002014
:101840004800002044000020000C0020340000204C
:1018500054000020E80100206400002068000020FF
:10186000000082425C000020000082C26000002074
:101870005000002080000020333333333333E3BF84
:101880008400002088000020000000000000F83FD5
:1018900000008C4200008CC200000000700000209C
:1018A000200F0020FB4890ED000AB5EEC00AF1EED3
:1018B00010FA03D80421F84880F82E1023E3BFEE75
:1018C000000AF64880ED000ABFEE000AF44880EDF9
:1018D000000A1FED0F0AF34880ED000A13E3F248F7
:1018E000006813280ED0BFEE000AEC4880ED000A15
:1018F000BFEE000AEA4880ED000A1FED190AE94828
:1019000080ED000AE34890ED000AB5EEC00AF1EE62
:1019100010FA34DDE54890ED000ADFEDE50A30EE1F
:10192000200AE44880ED000A90ED000ADFEDE20AAB
:10193000B4EEE00AF1EE10FA08DD90ED000ADFEDFA
:10194000DF0A30EE600A80ED000A54E0D94890EDDD
:10195000000ADFEDDB0AB4EEE00AF1EE10FA08D27D
:1019600090ED000ADFEDD50A30EE200A80ED000A86
:1019700041E0D04890ED000A80ED000A3BE0C54808
:1019800090ED000AB5EEC00AF1EE10FA33D8C74860
:1019900090ED000ADFEDCB0A30EE200AC54880ED5D
:1019A000000A90ED000ADFEDC40AB4EEE00AF1EEA1
:1019B00010FA08DD90ED000ADFEDC00A30EE600A93
:1019C00080ED000A17E0BB4890ED000ADFEDBC0A8D
:1019D000B4EEE00AF1EE10FA08D290ED000ADFED65
:1019E000B70A30EE200A80ED000A04E0B14890ED1D
:1019F000000A80ED000AAF4890ED000AB24880ED81
:101A0000240A80E2BFEE000AA44880ED000A00210B
:101A1000A14880F82D10B0F940001E2805DDB3EE76
:101A20000E0AA04880ED000A1EE09B48B0F9400075
:101A300010F11E0F05DABBEE0E0A9A4880ED000A7F
:101A400012E09549B1F940000BF058FD41EC190B3B
:101A50009FED9E0B53EC102B0BF06FFC41EC180B21
:101A60000BF0AEFD8F4908608B48B0F8400060B9BC
:101A70008948408C48B9BAEE0E0A894880ED000AC0
:101A8000BFEE000A854880ED000A8348408C01289B
:101A90000DD10021804880F82E108E4A8E480068B3
:101AA000401C42F8201001217B4880F82D102AE2CA
:101AB0007948408C012875D10121774880F82D1094
:101AC0001FED8B0A774880ED000A7348B0F91E00BD
:101AD000002803DD7048B0F91E0003E06E48B0F93D
:101AE0001E0040421E280EDD6B48B0F91E0000EEBD
:101AF000100AB8EEC00ADFED790A20EE200A674826
:101B000080ED000A0DE06448B0F91E0000EE100AF6
:101B1000B8EEC00AF6EE000A20EE200A5F4880ED1B
:101B2000000A5E4890ED000AF2EE060AB4EEE00A02
:101B3000F1EE10FA04DDB2EE060A80ED000A13E0C1
:101B4000564890ED000AFAEE060AB4EEE00AF1EE0D
:101B500010FA04D2BAEE060A80ED000A04E04F48FB
:101B600090ED000A80ED000A4B48B0F920000028F3
:101B700003DD4948B0F9200003E04748B0F92000F0
:101B800040421E280FDD4448B0F9200000EE100A44
:101B9000B8EEC00ADFED510A20EE200A404880ED81
:101BA000000A0EE031E03C48B0F9200000EE100AD7
:101BB000B8EEC00AF6EE000A20EE200A384880EDA2
:101BC000000A374890ED000AF2EE060AB4EEE00A89
:101BD000F1EE10FA04DDB2EE060A80ED000A26E00E
:101BE0002F4890ED000AFAEE060AB4EEE00AF1EE94
:101BF00010FA04D2BAEE060A80ED000A17E028486F
:101C000090ED000A80ED000A11E02348408C70B985
:101C10001FEDDF0A214880ED000A1FEDE10A204890
:101C200080ED000A1FEDE40A1E4880ED000A1A4804
:101C3000B0F91E00002803DD1748B0F91E0003E0CC
:101C40001548B0F91E0040420A2817DA1248B0F9C8
:101C50002000002803DD1048B0F9200003E00E4802
:101C6000B0F9200040420A2808DA0B48408C0128CD
:101C700004D11B480068401C1949086018480068D6
:101C8000962806D90021134A13480068401C42F8E0
:101C9000201038E154000020181600208000002099
:101CA0008400002088000020AC0000206400002098
:101CB0000000344258000020000034430000B443C8
:101CC000000034C3000034C2E8010020CDCCCCCCED
:101CD000CCCCFC3F000C002034000020CDCCCC3E0E
:101CE00040000020FE48408C01287BD1FD4890ED4B
:101CF0006D0A5FED060AB4EEE00AF1EE10FA71DD4E
:101D00009FEDF90AF94880ED000AF548B0F91E0088
:101D1000002803DDF248B0F91E0003E0F048B0F9F6
:101D20001E00404214280EDDED48B0F91E0000EE02
:101D3000100AB8EEC00A5FED170A20EE200AEC4840
:101D400080ED000A0DE0E648B0F91E0000EE100A32
:101D5000B8EEC00A5FED1F0A20EE200AE44880EDCD
:101D6000000AE34890ED000AF2EE000AB4EEE00A41
:101D7000F1EE10FA04DDB2EE000A80ED000A13E085
:101D8000DB4890ED000AFAEE000AB4EEE00AF1EE4C
:101D900010FA04D2BAEE000A80ED000A04E0D4483A
:101DA00090ED000A80ED000ACD48B0F9200000282F
:101DB00003DDCB48B0F9200003E0C948B0F92000AA
:101DC000404214280FDDC648B0F9200000EE100A8A
:101DD000B8EEC00A5FED3F0A20EE200AC54880ED4C
:101DE000000A0EE030E0BE48B0F9200000EE100A14
:101DF000B8EEC00A5FED470A20EE200ABD4880ED2C
:101E0000000ABC4890ED000AF2EE000AB4EEE00AC7
:101E1000F1EE10FA04DDB2EE000A80ED000A13E0E4
:101E2000B44890ED000AFAEE000AB4EEE00AF1EED2
:101E300010FA04D2BAEE000A80ED000A04E0AD48C0
:101E400090ED000A80ED000A0021A54880F82E10D0
:101E500080F82D10A34890ED6D0AF6EE000AB4EE5E
:101E6000E00AF1EE10FA05DD9FEDA30AA34880ED2C
:101E7000000A15E09B4890ED6D0AB5EEC00AF1EE40
:101E800010FA0DDB90ED6D0AF6EE000AB4EEE00AF2
:101E9000F1EE10FA04D89FED9A0A984880ED000AF6
:101EA00001208F4981F82C0096480068012802D053
:101EB0000020954908608B4890ED6D0ADFED930A8C
:101EC000B4EEE00AF1EE10FA1BD88F480068322811
:101ED00003D801208E4908700EE000208C4908705C
:101EE00000218C4A8C480068401C42F820100020D9
:101EF0008A4908708A49887183480068401C824971
:101F0000086000E000BF00BF82488349096850F8BC
:101F100021007C4908607F497F480068401C51F8D7
:101F20002000B0F57A7F0AD87B480068401C51F841
:101F300020000A2803D301207A49087002E000201B
:101F400078490870734974480068401C51F82000B3
:101F500005280BD370480068401C51F82000401F32
:101F60000A466D490968491C42F8210069496A48D6
:101F70000068401C51F820000A280AD8664800680A
:101F800069490968884204D263480068801C624934
:101F90000860BDEC048B10BD08B5FEF786FB009011
:101FA000FEF704FE00214E4880F82E103CE005218B
:101FB000684609F04CFA5D484089B0F5FA7F0BDCC1
:101FC0005A48008940F2DC51884205DB58480068D5
:101FD000401D5749086002E00020554908605448F8
:101FE0000068B0F5FA6F09D301204C4908704C49DC
:101FF000887105203A4981F82C0007E00020474904
:1020000008709FED390A4B4880ED590A4348007823
:10201000012802D1FEF775FF01E0FEF726FF4648D2
:102020000068401C44490860C1E710B52DED088BDD
:1020300038483949096850F82100022845D0354808
:102040003549096850F821000C283ED03148324902
:10205000096850F821000D2837D02E482E4909680C
:1020600050F821000E2830D02A482B49096850F832
:1020700021000F2829D027482749096850F8210056
:10208000132822D023482449096850F82100122837
:102090001BD020482049096850F82100102814D08E
:1020A0001C481D49096850F8210011280DD0194815
:1020B0001949096850F82100012806D01548164929
:1020C000096850F8210003287DD118484088A0F500
:1020D0008060002832DD15484088A0F5806031E03E
:1020E00018160020E80100200000000088000020F1
:1020F00080000020840000200AD723BD8C0000202F
:102100003333B3BEAC0000203C000020B81E053EB7
:102110007C000020000C002034000020780000200B
:10212000B41200207900002038000020841D002017
:102130007400002040130020A8000020FE484088C2
:10214000C0F58060642821DDFC490988A1F6B8301B
:102150000BF0D4F941EC1B0B9FEDF90B53EC102B5A
:102160000BF05DF941EC1A0B81F0004141EC190BC9
:102170009FEDF50B53EC102B0BF0DFF841EC180B37
:102180000BF01EFAF249C1F8180341E0F14890ED56
:10219000000AFFEE000AB4EE600AF1EE10FA23D155
:1021A000ED4890ED000AB5EEC00AF1EE10FA0BD141
:1021B000E74890EDA30A80EDA20AB7EE000AE648D0
:1021C00080ED000A24E082E0E34890ED000AF7EE9B
:1021D000000AB4EE600AF1EE10FA19D1DC4890ED75
:1021E000AD0A80EDC60A13E0DA4890ED000AFFEE72
:1021F000000AB4EE600AF1EE10FA09D090ED000A80
:10220000D34880EDC60A1FED480AD34880ED000A86
:10221000C9480088A0F58060002804DDC648008811
:10222000A0F5806003E0C4480088C0F580606428A1
:1022300021DDC2494988A1F6B8300BF05FF941ECC5
:102240001B0B9FEDBF0B53EC102B0BF0E8F841EC90
:102250001A0B81F0004141EC190B9FEDBB0B53ECC5
:10226000102B0BF06AF841EC180B0BF0A9F9B849E8
:10227000C1F8D00240E0B94890ED000AFFEE000A34
:10228000B4EE600AF1EE10FA22D1B54890ED000AE2
:10229000B5EEC00AF1EE10FA0AD1AD4890ED910A00
:1022A00080ED900AB7EE000AAD4880ED000A23E009
:1022B000AB4890ED000AF7EE000AB4EE600AF1EECA
:1022C00010FA19D1A24890ED9B0A80EDB40A13E0F0
:1022D000A24890ED000AFFEE000AB4EE600AF1EEAB
:1022E00010FA09D090ED000A994880EDB40A1FED6C
:1022F000820A9B4880ED000ABDEC088B10BD10B52A
:102300002DED068B97489849096850F8210006285A
:1023100053D094489449096850F8210008284CD0BB
:1023200090489149096850F82100072845D08D4808
:102330008D49096850F8210002283ED089488A4911
:10234000096850F821000C2837D08648864909686A
:1023500050F821000D2830D082488349096850F890
:1023600021000E2829D07F487F49096850F82100B4
:102370000F2822D07B487C49096850F82100132897
:102380001BD078487849096850F82100122814D0E9
:1023900074487549096850F8210010280DD071481B
:1023A0007149096850F82100112806D06D486E491E
:1023B000096850F8210003282DD15F48C088A0F596
:1023C0008060002804DD5C48C088A0F5806003E0E0
:1023D0005948C088C0F5806064281DDD5749898848
:1023E000A1F6B8300BF08AF841EC1A0B9FED540BB4
:1023F00053EC102B0BF013F841EC190B9FED5B0B1A
:1024000053EC102B0AF099FF41EC180B0BF0D8F8A5
:102410004F49C1F8680153E0564890ED000AB5EE07
:10242000C00AF1EE10FA40D1534890ED000AB5EE23
:10243000C00AF1EE10FA0AD1454890ED250A80ED68
:10244000240AB7EE000A4C4880ED000A38E04A48FA
:1024500090ED000AF7EE000AB4EE600AF1EE10FA11
:102460002ED13B4890ED2F0AF3EE090AB4EEE00AB4
:10247000F1EE10FA04DDB3EE090A80ED5A0A1FE00E
:10248000334890ED2F0AFBEE090AB4EEE00AF1EEB4
:1024900010FA04D2BBEE090A80ED5A0A10E02C486B
:1024A00090ED2F0A80ED5A0A0AE0324890ED000ABA
:1024B000274880ED5A0A1FEDF40A2F4880ED000AE4
:1024C000BDEC068B10BD10B52DED068B25482649B9
:1024D000096850F82100012861D117488088A0F5CB
:1024E0008060002804DD14488088A0F5806003E047
:1024F00011488088C0F58060642843DD0F49C98891
:10250000A1F6B8300AF0FAFF41EC1A0B9FED0C0B64
:1025100053EC102B0AF083FF41EC190B9FED170BC6
:1025200053EC102B0AF009FF41EC180B0BF048F8A4
:102530000749C1F8F80132E0841D0020A4120020F0
:102540000000000000408F400000000000005940E3
:10255000E8010020840000202400002080000020EA
:1025600020000020000C00203400002000000000AB
:10257000000054408800002028000020333333330B
:102580003333E33F084890ED000AB5EEC00AF1EEA0
:1025900010FA04D090ED000A044880ED7E0ABDECEC
:1025A000068B10BD704770478C000020E8010020AA
:1025B00008B5FEF77AF8009008E00521684608F0B3
:1025C00046FFF12002F054FC02F0BBFBF5E70146A8
:1025D000002004E0F74A125CF74B1A54401C2C28E8
:1025E000F8DB704710B50446F4480470F4480078EE
:1025F00006285FD2DFE800F0030B19283752EF48B6
:102600000078552802D10120ED49087053E0EB48CD
:10261000007830B90220EA4908700020E9490870C2
:1026200002E00020E649087045E0E448007802280E
:1026300006D10320E24908700020E249087002E058
:102640000020DF49087036E0DC480078082806D111
:102650000420DB4908700020DA49087002E00020FD
:10266000D749087027E0D74800782C280BDAD348E0
:102670000078D049D34A12788854D2480078401C58
:10268000D049087009E0CD48007818B90520CC4938
:10269000087002E00020CA4908700CE0C7480078C2
:1026A000AA2803D1C8480078FFF791FF0020C44949
:1026B000087000E000BF00BF10BD1CB50025FDF78D
:1026C000F4FF019074E1012101A808F0C0FE00248C
:1026D00004E0BE49085DFFF785FF641C322CF8DB7F
:1026E000B54890ED000ADFEDBA0A30EE600A80EDE1
:1026F000000A90ED020ADFEDB70A30EE200A80ED05
:10270000020A90ED020ADFEDB40AB4EEE00AF1EE3F
:1027100010FA07DD90ED020ADFEDB00A30EE600A34
:1027200080ED020AA44890ED010AB5EEC00AF1EE70
:1027300010FA07DD90ED010ADFEDA80A30EE600A1D
:1027400080ED010A9C4890ED010ADFEDA50AB4EE88
:10275000E00AF1EE10FA07D290ED010ADFED9F0AD0
:1027600030EE200A80ED010A934890ED060A80EDD4
:10277000060A90ED070A80ED070A90ED060ADFEDE4
:10278000990AB4EEE00AF1EE10FA15DD90ED060AB2
:10279000DFED950AB4EEE00AF1EE10FA0CD290EDFE
:1027A000060ADFED920A20EE200ABDEEC00A10EE06
:1027B000100A01B28E4801877F4890F824108C4897
:1027C000A0F846107C4890F825108948A0F84810D9
:1027D000794890F826108648A0F84A10764890F874
:1027E00027108348A0F84210734890ED0A0ABDEE06
:1027F000C00A10EE100A01B27D48A0F84410B0F9EA
:102800004800782808DD7A48B0F84800A0F58070C4
:1028100001B27748A0F848107548B0F94A00782806
:1028200008DD7348B0F84A00A0F5807001B2704826
:10283000A0F84A106E48B0F846006D4988870846EF
:10284000B0F84810C187B0F84A10A0F8401006F060
:102850007BFC6848007868B1002404E06649085DA4
:1028600003F000FF641C634800788442F6DB00201C
:102870006049087007F084F86048007868B1002467
:1028800004E05F49085D05F01BF8641C5B480078B4
:102890008442F6DB00205949087006F0E5FF5948EC
:1028A000007868B1002404E05749085D01F052FD4A
:1028B000641C544800788442F6DB002051490870BB
:1028C0000920B5FBF0F100FB115050BB00200DF0CA
:1028D000ABFD4E4988820846808A898888421CD18F
:1028E0004A48808A002818DD4848808A322814DA4D
:1028F0004748407E0F2810D0322000904FF0807063
:10290000406D434B434A012106680020B0474FF019
:102910008070406D4169002088473C48808A3B496F
:1029200088800520B5FBF0F100FB115088BB142016
:102930000DF07AFD3549C8830846C08BC9898842A5
:1029400031D13248C08B64282DDA3048C08BC0F1B9
:10295000640031490880002404E03048005D3049BB
:102960000855641C2C4800888442F6DB64200090E3
:102970004FF08070406D294B2A4A012106681420CF
:10298000B0474FF08070406D4169142088470024A3
:1029900005E00CE02249085D02F096FB641C1E482D
:1029A00000888442F6DB1948C08B1849C8816D1C29
:1029B00089E6000068120020EC120020BE00002012
:1029C000BC000020BD000020BF0000205E220020CF
:1029D000CDCC8C3F9A993343000034430000B4437C
:1029E000000034C30000484200009644CDCCCC3DEA
:1029F00018160020E005002052210020F9050020D3
:102A00009C230020F80500202E23002040120020E7
:102A10008E21002000E00040FC050020EC23002077
:102A2000B424002000300140704700002DED088BD9
:102A300060E1FE4800681421B0FBF1F201FB1200D6
:102A4000B0B9FB480068FB490968884209D10120F8
:102A5000F94908708002F949088048808880C88058
:102A600002E00020F4490870F1480068F14908606C
:102A7000F2480088B0F5806F11D1F0484088B0F579
:102A8000806F0CD1ED488088B0F5806F07D1EB489E
:102A9000C088B0F5806F02D10120E7490870E7498E
:102AA0000988A1F580600AF029FD41EC1B0B9FED20
:102AB000E40B53EC102B0AF0B2FC41EC1A0B9FED27
:102AC000E20B53EC102B0AF038FC41EC190B9FED94
:102AD000E00B53EC102B0AF089FB41EC180B0AF0C9
:102AE0006FFDDD490860D5494988A1F580600AF08D
:102AF00005FD41EC1B0B9FEDD20B53EC102B0AF0A4
:102B00008EFC41EC1A0B9FEDD00B53EC102B0AF00E
:102B100014FC41EC190B9FEDCE0B53EC102B0AF07B
:102B200065FB41EC180B0AF04BFDCB494860C349EB
:102B30008988A1F580600AF0E1FC41EC1B0B9FED58
:102B4000C00B53EC102B0AF06AFC41EC1A0B9FED02
:102B5000BE0B53EC102B0AF0F0FB41EC190B9FED70
:102B6000BC0B53EC102B0AF041FB41EC180B0AF0A4
:102B700027FDB9498860B149C988A1F580600AF08C
:102B8000BDFC41EC1B0B9FEDAE0B53EC102B0AF080
:102B900046FC41EC1A0B9FEDAC0B53EC102B0AF0EA
:102BA000CCFB41EC190B9FEDAA0B53EC102B0AF058
:102BB0001DFB41EC180B0AF003FDA749C86008464D
:102BC00090ED020ADFEDA50AB4EEE00AF1EE10FA8C
:102BD00003D29FEDA20A80ED020A9F4890ED020AFF
:102BE000DFED9F0AB4EEE00AF1EE10FA03DD9FED8F
:102BF0009C0A80ED020A984890ED000ADFED990AE0
:102C0000B4EEE00AF1EE10FA08D390ED000ADFED21
:102C1000960AB4EEE00AF1EE10FA04DD9FED930A95
:102C20008D4880ED000A8C4890ED010ADFED8D0A99
:102C3000B4EEE00AF1EE10FA08D390ED010ADFEDF0
:102C40008A0AB4EEE00AF1EE10FA04DD9FED870A7D
:102C5000814880ED010A804890ED030ADFED810A8A
:102C6000B4EEE00AF1EE10FA08D390ED030ADFEDBE
:102C70007E0AB4EEE00AF1EE10FA04DD9FED7B0A65
:102C8000754880ED030A744890ED010ABCEEC00A55
:102C900010EE100A764908806F4890ED000ABCEEED
:102CA000C00A10EE100A48806B4890ED020ABCEE94
:102CB000C00A10EE100AC880674890ED030ABCEE07
:102CC000C00A10EE100A88805B480078012809D1FC
:102CD00068480078012805D140F6B830088048805F
:102CE000C88088800A2008F01CFC50480068401CFE
:102CF0004E4908609DE65E48C08840F26C7188428B
:102D000017DD5B48C08840F63401884211DA584824
:102D1000808840F63C7188420BDD5548808841F23E
:102D20000401884205DA54488068401C5249886092
:102D300002E00020504988604D48C08840F26C7124
:102D4000884217DD4A48C08840F63401884211DACB
:102D50004748808840F26C7188420BDD4448808887
:102D600040F63401884205DA43480068401C424975
:102D7000086002E00020404908603D48C08840F6F5
:102D80003C71884217DD3A48C08841F2040188420C
:102D900011DA3748808840F26C7188420BDD344884
:102DA000808840F63401884205DA33484068401C88
:102DB0003149486002E000202F4948602C48C08813
:102DC00040F63C71884217DD2948C08841F2040171
:102DD000884211DA2648808840F63C7188420BDD33
:102DE0002348808841F20401884205DA2248C068FD
:102DF000401C2149C86002E000201F49C8601C48EF
:102E0000008840F26C71884240DD1948008840F625
:102E1000340188423ADA1648408840F26C718842A0
:102E200034DD1348408840F6340127E0C400002018
:102E3000E4050020C8000020C0000020841D002000
:102E400000000000000085400000000000408F40AE
:102E5000000000000070A740941200200000FA4417
:102E600000007A450000E1440040834500803B4576
:102E7000A412002078000020C0120020884205DA49
:102E80004B480069401C4A49086102E0002048495B
:102E900008614848008840F26C71884217DD454857
:102EA000008840F63401884211DA4248408840F6F2
:102EB0003C7188420BDD3F48408841F20401884262
:102EC00005DA3B488069401C3949886102E00020EE
:102ED000374988613748008840F63C71884217DDE1
:102EE0003448008841F20401884211DA31484088B0
:102EF00040F26C7188420BDD2E48408840F6340168
:102F0000884205DA2A484069401C2949486102E0A4
:102F10000020274948612748008840F63C718842D4
:102F200017DD2448008841F20401884211DA214863
:102F3000408840F63C7188420BDD1E48408841F2D3
:102F40000401884205DA1A48C069401C1849C86162
:102F500002E000201649C8611548806896280BD306
:102F60000120154988711248006908B10520C8710F
:102F700000200F49886008600D480068322805D39A
:102F800000200D4988710A4988600860704700B5C3
:102F9000FFF7B1FE09480089B0F5FA7F03DC002095
:102FA0000549C87102E005200349C87100BD000051
:102FB000C0120020A4120020B4120020841D0020A2
:102FC00008B500BF05F09EFD05F088FB04F0CBFEC0
:102FD00003F085F940F6B83008F0A3FA05F0CCFF0D
:102FE00005F0DAFF1C4880ED000A05F0D1FF1B4810
:102FF00080ED000A01201A4908724FF47A7008F037
:1030000090FA05F07DFA4FF47A7008F08AFA002001
:10301000134908721EE013480068C0B16420002301
:10302000012240F2874100900E48006806F059FFE7
:10303000044604F0030003280CD004F0010048B952
:1030400004F0020030B904F0800018B902E00A2050
:1030500008F067FADFE70000D0000020CC00002075
:10306000B41200200400002010B5FA48807901282D
:103070004AD1F848C07901280AD1F748C088B0F58C
:10308000FF6F02DD03F0BDF942E003F034FA3FE0E8
:10309000F048C07902280BD0EE48C079032807D049
:1030A000EC48C079042803D0EA48C07905281CD12F
:1030B000EA4890ED6D0ADFEDEA0AB4EEE00AF1EEBF
:1030C00010FA08D2E448C08840F6E301884202DAE8
:1030D00003F011FA1CE0E3480078012802D103F064
:1030E0000AFA15E003F08DF912E0DA48C07928B940
:1030F00003F078F90020D749887109E003F072F9EC
:103100000020D449887103E003F080FE03F06AF9DF
:1031100010BDF0EE400A20EEA00AB0EE401ADFED3E
:10312000D21A9FEDD20A01EE210A60EE201A9FED1D
:10313000D00A31EE002A81EE820A704770B52DED7B
:10314000088BF0EE408AB0EE609A04460D46B3EE6E
:103150000E0AB0EE408AC74890ED000ADFEDC60ABD
:1031600020EE200A10EE101A08460AF0E5F941ECAC
:103170001B0BB0EE4B0AF0EE6B0A0BF03DFDB0EE10
:1031800040AAF0EE60AA51EC1A0B0AF019FA09EE07
:10319000900A28EEA90ADFEDB90A80EE201AF0EEB7
:1031A000412AB0EE620AFFF7B4FFDFEDB50A20EE68
:1031B000200AB0EE40AAB0EE481AF1EE480A00F03C
:1031C000C7FD84ED000A9FEDAD0AC9EE000AF0EEDE
:1031D000602AB0EE620AFFF79CFFDFEDA90A20EE3D
:1031E000200AB0EE40AAB0EE481AF1EE480A00F00C
:1031F000AFFD85ED000ABDEC088B70BD10B52DED5F
:10320000088B0446082C72D2DFE804F0710476FEC5
:10321000FDFCFBFA9B480078F0B19B480088A0F5C4
:103220008060002804DD98480088A0F5806003E0F5
:1032300095480088C0F5806064280DDC874890EDD3
:10324000910A80ED900A914890ED000AF7EE000A8D
:1032500030EE200A80ED000A8D480078F0B18A48EF
:103260004088A0F58060002804DD87484088A0F5EC
:10327000806003E084484088C0F5806064280DDCED
:10328000764890EDA30A80EDA20A824890ED000AEC
:10329000F7EE000A30EE200A80ED000A7A484088F6
:1032A000A0F58060002804DD77484088A0F58060A4
:1032B00003E075484088C0F58060642801DD012086
:1032C00000E00020724908706F480088A0F5806017
:1032D000002804DD6C480088A0F5806003E06A489F
:1032E0000088C0F58060642802DD012001E0CAE1A9
:1032F000002064490870C7E163484088A0F58060F9
:10330000002804DD60484088A0F5806003E05E4846
:103310004088C0F58060642821DD4F490988A1F606
:10332000B8300AF0EBF841EC1B0B9FED5B0B53EC54
:10333000102B0AF074F841EC1A0B81F0004141ECBB
:10334000190B9FED570B53EC102B09F0F6FF41ECD6
:10335000180B0AF035F94149C1F8180322E03F483B
:1033600090EDAD0ADFED500AB4EEE00AF1EE10FA8E
:1033700004DD9FED4D0A80EDC60A13E0374890ED5D
:10338000AD0ADFED4A0AB4EEE00AF1EE10FA04D21B
:103390009FED460A80EDC60A04E0304890EDAD0A84
:1033A00080EDC60A38480088A0F58060002804DD5A
:1033B00035480088A0F5806003E033480088C0F5F8
:1033C0008060642827DD24494988A1F6B8300AF0D6
:1033D00095F841EC1B0B9FED300B53EC102B0AF0D2
:1033E0001EF841EC1A0B81F0004141EC190B9FEDE6
:1033F0002C0B53EC102B09F0A0FF41EC180B04E050
:1034000001E1D0E0BFE089E058E00AF0D9F81349C3
:10341000C1F8D00251E0114890ED9B0ADFED220A7D
:10342000B4EEE00AF1EE10FA04DD9FED1F0A80ED24
:10343000B40A42E0094890ED9B0ADFED1C0AB4EEA5
:10344000E00AF1EE10FA33D29FED180A80EDB40ACB
:1034500033E00000B4120020A4120020E801002094
:10346000CDCC4C3E7A000020D72DE03ED9E7D73FA7
:10347000DCE7D73FE80000202EFA8E3C902A754406
:10348000ED2E654233010020841D0020180100202C
:10349000320100201C0100200000000000408F408D
:1034A000000000000000594000002042000020C23F
:1034B000FE4890ED9B0A80EDB40AE5E0FC480078F8
:1034C000A8B1FC488088A0F58060002804DDF94898
:1034D0008088A0F5806003E0F6488088C0F58060B1
:1034E000642804DCF14890ED6D0A80ED6C0AF14827
:1034F0008088A0F58060002804DDEE488088A0F573
:10350000806003E0EB488088C0F58060642801DDBE
:10351000012000E00020E6490870B5E0E548808819
:10352000A0F58060002804DDE2488088A0F5806076
:1035300003E0E0488088C0F5806064281DDDDE4936
:10354000C988A1F6B83009F0D9FF41EC1A0B1FED7C
:103550002E0B53EC102B09F062FF41EC190B9FED81
:10356000D70B53EC102B09F0E8FE41EC180B0AF0D6
:1035700027F8CE49C1F8F80104E0CC4890ED770A6D
:1035800080ED7E0A80E0C94890EDBF1AB1EE411A85
:10359000F0EE410A90EDD11AB0EE410A00F1480177
:1035A000FFF7CCFD70E0C7480078A8B1C148C088DB
:1035B000A0F58060002804DDBE48C088A0F58060CA
:1035C00003E0BC48C088C0F58060642804DCB748CC
:1035D00090ED250A80ED240AB648C088A0F58060E9
:1035E000002804DDB348C088A0F5806003E0B1483E
:1035F000C088C0F58060642801DD012000E0002063
:10360000B049087040E0A94890ED0B0AB1EE400ABD
:1036100080ED480A90ED1D0A80ED360AA548C08865
:10362000A0F58060002804DDA248C088A0F5806075
:1036300003E0A048C088C0F5806064281DDD9E4975
:103640008988A1F6B83009F059FF41EC1A0B1FED3B
:103650006E0B53EC102B09F0E2FE41EC190B9FEDC1
:103660009A0B53EC102B09F068FE41EC180B09F093
:10367000A7FF8E49C1F8680104E08C4890ED2F0A3D
:1036800080ED5A0A00E000BF00BFBDEC088B10BD02
:1036900010B50320FFF7B2FD8D480078401C8C491F
:1036A000087008460078022805DB8A4803F062F8B3
:1036B0000020874908700420FFF7A0FDFEF703FFF4
:1036C0008448483003F056F80120FFF797FD824800
:1036D0000078401C804908700846007802280ADB00
:1036E0007C48903003F046F87A48D83003F042F82E
:1036F0000020794908700220FFF780FDFEF795FC55
:10370000764803F037F87548483003F033F8052061
:10371000FFF774FD654803F02DF86448483003F066
:1037200029F80620FFF76AFD6048903003F042FA5E
:103730000720FFF763FDFEF7E2FD5C48D83003F099
:1037400019F86448903803F015F86248483803F0D7
:1037500011F840F6EE40624908805448D0ED890ADD
:103760000846B0F9000000EE100AB8EEC00A30EECC
:10377000800A5C4880ED000A4C4890ED410A5A48A6
:1037800080ED000A494890ED530AB1EE400A5748CF
:1037900080ED000A454890ED650AB1EE400ADFED84
:1037A000540A30EE600A534880ED000A4D4890ED0F
:1037B000000A4E48D0ED000A30EE600A4A48D0EDCB
:1037C000000A30EE600A4B48D0ED000A30EE200AC5
:1037D000BDEEC00A10EE100A00B247490880414809
:1037E00090ED000A4148D0ED000A30EE200A3E4834
:1037F000D0ED000A30EE200A3E48D0ED000A30EE4F
:10380000200ABDEEC00A10EE100A00B2488035480A
:1038100090ED000A3548D0ED000A30EE600A3248DB
:10382000D0ED000A30EE200A3248D0ED000A30EE2A
:10383000600ABDEEC00A10EE100A00B28880294866
:1038400090ED000A2948D0ED000A30EE200A264803
:10385000D0ED000A30EE600A2648D0ED000A30EEC6
:10386000600ABDEEC00A10EE100A00B2C88010BD9A
:10387000224890ED0F0A0D4880ED910A1F4890ED07
:10388000100A0A4880EDA30A1C48B0F9100000EEA7
:10389000100AB8EEC00A054880EDB50A1748B0F91D
:1038A000120000EE100AB8EEC00A29E0E80100207C
:1038B00030010020841D0020A41200203333333354
:1038C0003333E33F3101002000000000000054408A
:1038D000100100209803002011010020B8040020EE
:1038E00000010020F0000020F4000020F80000207B
:1038F00000004843FC00002040190020501900201F
:10390000AF4880EDC70AAF4890ED000AAC4880EDA3
:10391000010AAD4890ED000AA94880ED130AAB48B2
:1039200090ED000AA64880ED250AA94890ED0B0A03
:10393000B1EE400AA24880ED490AA54890ED050A7B
:10394000B1EE400A9E4880ED370AA14890ED110A79
:10395000B1EE400A9A4880ED5B0A9D4890ED540A0A
:10396000974880ED6D0A9A4890ED580A944880ED8A
:103970007F0A704708B5FCF798FE0090002008F019
:1039800062FB9449086040F2DC5007F0CAFD58E041
:103990000521684607F05BFD02F08EFB8E4890ED36
:1039A000000AB1EE400A874880ED000A8A4890ED8F
:1039B000020A854880ED000A874890ED010AB1EEC1
:1039C000400A824880ED000A834890ED030AB1EE78
:1039D000400A7F4880ED050A7F4890ED040A7C4844
:1039E00080ED0B0A7C4890ED050AB1EE400A78485C
:1039F00080ED110A90ED110ADFED780A20EE200A21
:103A000080ED100A90ED050ADFED740A20EE200A21
:103A100080ED040A90ED0B0ADFED700A20EE200A1B
:103A200080ED0A0A01F0CCFCFFF7B1FAFFF720FFA6
:103A3000FFF72EFEFFF718FB69480068401C684935
:103A40000860A5E710B503F0E1F900F067FF012079
:103A50006449C87100208871634908804880888063
:103A6000C88040F616506149088000205D49086012
:103A70009FED5F0A524880ED240A9FED5D0A80EDBC
:103A8000900A9FED5B0A80EDA20A10BD10B559485F
:103A900090ED080A5848D0ED000A30EE600AF0EECA
:103AA000000AB4EEE00AF1EE10FA3AD8514890ED6F
:103AB000080A5148D0ED000A30EE600AF8EE000A1C
:103AC000B4EEE00AF1EE10FA2BDB3E4890ED000A6E
:103AD000F8EE000AB4EEE00AF1EE10FA21DB90ED08
:103AE000000AF0EE000AB4EEE00AF1EE10FA18D87F
:103AF000354890ED000AF8EE000AB4EEE00AF1EE67
:103B000010FA0EDB90ED000AF0EE000AB4EEE00AC7
:103B1000F1EE10FA05D839480078401C3749087092
:103B200002E0002035490870324890ED080A32481A
:103B300080ED000A31480078C82840DB2D4890ED20
:103B4000080A2248D0ED000A30EE600AF0EE000AC2
:103B5000B4EEE00AF1EE10FA0EDA264890ED080A0B
:103B60001A48D0ED000A30EE600AF8EE000AB4EE12
:103B7000E00AF1EE10FA1FD82148007850B91D482C
:103B8000D0ED080AB0EE600A02F02FFA01201C49BD
:103B9000087011E01748D0ED080A0C4890ED001AA3
:103BA00030EEC11AD0ED000ADFED161A41EE210AFF
:103BB000B0EE600A02F019FA00201049087010BD3A
:103BC000E8010020E4000020E8000020EC000020D4
:103BD00040130020E0000020EC12002003FA8E3C8D
:103BE00024010020B4120020401900200001002010
:103BF00000000000E01800202C0100202801002017
:103C000014010020CDCCCC3DFE4A92ED000A80ED9F
:103C1000020A92ED010A80ED030A92ED020ABCEE5F
:103C2000C00A10EE102A0282F64A92ED030A80EDD5
:103C30000E0A92ED040A80ED0F0A92ED050A80ED5E
:103C4000100A92ED060A80ED1F0A92ED070A80ED38
:103C5000160A92ED080A80ED170A92ED090A80ED26
:103C6000180A92ED0A0ABCEEC00A10EE102AA0F85B
:103C70007420E44A92ED0B0A80ED1E0A92ED0C0AC4
:103C800080ED190A92ED0D0A80ED1A0A92ED0E0AE6
:103C900080ED1B0A92ED0F0A81ED020A92ED100AE7
:103CA00081ED030A92ED110ABCEEC00A10EE102A53
:103CB0000A82D44A92ED120A81ED0E0A92ED130A9D
:103CC00081ED0F0A92ED140A81ED100A92ED150AAA
:103CD00081ED1F0A92ED160A81ED160A92ED170A80
:103CE00081ED170A92ED180A81ED180A92ED190A72
:103CF000BCEEC00A10EE102AA1F87420C14A92ED61
:103D00001A0A81ED1E0A92ED1B0A81ED190A92ED45
:103D10001C0A81ED1A0A92ED1D0A81ED1B0A9FED26
:103D2000BA0A81ED250A9FEDB90A81ED230A9FEDBC
:103D3000B60A81ED240A9FEDB40A80ED250A9FEDB5
:103D4000B30A80ED230A9FEDB00A80ED240A704784
:103D5000F0EE401AF4EEE01AF1EE10FA02D2B0EEF4
:103D6000600A7047F4EEC11AF1EE10FA02DDB0EE0F
:103D7000410AF6E7B0EE610AF3E710B52DED048BCA
:103D8000B0EE408A00249FEDA20AB4EEC08AF1EEA4
:103D900010FA01DD012410E018EE100A09F0CCFB46
:103DA00041EC190B9FED9B0B53EC102B09F0D8FB4A
:103DB00002D24FF0FF3400E000242046BDEC048B1B
:103DC00010BD70B52DED068BB0EE408AB0EE609A56
:103DD000F0EE418A00249FED910AF0EE409A78EED1
:103DE000280AB0EE600AFFF7C8FF064678EE680AB8
:103DF000B0EE600AFFF7C1FF351A05EBD570401031
:103E000004B2B7EE000A30EE490AF0EE400AB0EE16
:103E1000680A0BF0FFF8F0EE400A00EE104AB8EE28
:103E2000C00A28EE000A80EE20AAB5EEC08AF1EEA4
:103E300010FA02DDF0EE480A01E0F1EE480AB0EEB9
:103E4000600AF0EE490A0BF0E5F8F0EE40AAB0EE99
:103E5000480AFFF792FF00EE100AB8EEC00A6AEEB9
:103E6000800AC4F1010000EE100AB8EEC00A00EEAC
:103E700080AAF0EE4A9AB0EE690ABDEC068B70BDDE
:103E800010B52DED028B04469FED640AB0EE408A1A
:103E9000D4ED130AB0EE600A9FED611ADFED610AFE
:103EA000FFF756FFB0EE408AD4ED1B1AB0EE611A50
:103EB000D4ED191AF0EE610AD4ED121AB0EE610ACF
:103EC000FFF77FFFD4ED170A20EE200A84ED200AC9
:103ED00094ED1B0AB0EE401A94ED1A0AF0EE400A77
:103EE000B0EE480AFFF76DFFD4ED180A20EE200A65
:103EF00084ED220A94ED090AB1EE400AD4ED1F0ABE
:103F000080EE201A84ED211A94ED200AD4ED230AC4
:103F1000B4EEE00AF1EE10FA03DD94ED230A84ED2D
:103F2000200A94ED200AD4ED230AF1EE600AB4EEE3
:103F3000E00AF1EE10FA05D294ED230AB1EE400A40
:103F400084ED200A94ED210AD4ED240AB4EEE00AAF
:103F5000F1EE10FA03DD94ED240A84ED210A94EDCC
:103F6000210AD4ED240AF1EE600AB4EEE00AF1EE83
:103F700010FA05D294ED240AB1EE400A84ED210A2C
:103F800094ED220AD4ED250AB4EEE00AF1EE10FA1F
:103F900003DD94ED250A84ED220A94ED220AD4ED86
:103FA000250AF1EE600AB4EEE00AF1EE10FA05D24D
:103FB00094ED250AB1EE400A84ED220A94ED200A20
:103FC000D4ED210A30EE200AD4ED220A30EE200A88
:103FD00084ED140ABDEC028B10BD10B5044694EDBF
:103FE000070AD4ED0B0A30EE600A84ED0A0AD4ED1C
:103FF000030AB0EE601AD4ED0A0AB0EE600AF6EEDB
:10400000000A11E0640401000000704200008C43CB
:10401000BD3786358DEDB5A0F7C6B0BE00000000F7
:1040200000803B4500803BC5FFF7CBFE84ED0C0ACA
:10403000D4ED030AB0EE601AD4ED0A0AB0EE600ABD
:10404000F5EE000AFFF7BDFE84ED0D0A94ED080AB7
:10405000D4ED0E0A94ED0A1A00EEC10AD4ED070A57
:1040600094ED031A41EE000AC4ED070A94ED090A23
:10407000D4ED0F0A94ED0C1A00EEC10AD4ED1F0A1C
:1040800094ED151A00EE810AD4ED080A94ED031A96
:1040900041EE000AC4ED080A94ED100AB1EE400AA0
:1040A000D4ED0D0A60EE200A94ED090A94ED031A8E
:1040B00001EE200A84ED090A10BD70B52DED028BCA
:1040C000B0EE408AF0EE608A002478EE280AB0EE66
:1040D000600AFFF752FE064678EE680AB0EE600A04
:1040E000FFF74BFE351A05EBD570401004B22046A1
:1040F000BDEC028B70BD10B52DED0C8B0446F0EEBF
:10410000409A1FED3A0AB0EE408A1FED3C0AB0EE2D
:10411000409A1FED3E0AF0EE408A1FED400AF0EE95
:1041200040AA1FED420AB0EE40DA1FED440AB0EE9D
:1041300040AA1FED460AF0EE40DA94ED000A30EE98
:10414000690AF0EE40DA208A00EE100AB8EE400A62
:10415000D4ED030A20EE200A84ED050A94ED020A4C
:10416000D4ED050A20EE200AD4ED050A20EE200A3F
:10417000B0EE408A94ED050AD4ED010A20EE200A43
:10418000B0EE409A3DEE890AF0EE408AF5EEC08A24
:10419000F1EE10FA02DDF0EE680A01E0F1EE680AD5
:1041A000F2EE001AB0EE481A01EEA01A21EE080A4B
:1041B00010EE100A09F0C0F941EC1C0BB0EE4C0AED
:1041C000F0EE6C0A0BF0BCFAB0EE40BAF0EE60BA5A
:1041D00051EC1B0B09F0F4F90AEE900AB0EE680AF4
:1041E000FFF7CBFD00EE100AB8EEC00A7AEEC80A5F
:1041F00060EE200AB0EE001A80EE810A30EE090A65
:10420000B0EE40DAF0EE480AB0EE680AFFF755FF6C
:1042100000EE100AB8EEC00A79EE280A20EE20BAA5
:10422000F0EE480AB0EE680AFFF747FFC0F1010060
:1042300000EE100AB8EEC00A0DEE00BAB0EE4BAABE
:104240008AEE080AD4ED020AF1EE600A20EE20BAE6
:10425000F0EE480AB0EE4A0AFFF72FFF00EE100A10
:10426000B8EEC00A2BEE00BAB0EE4A0AFFF785FDA1
:1042700000EE100AB8EEC00AD4ED020A60EE20BAD1
:10428000F0EE480AB0EE4A0AFFF717FFC0F101004E
:1042900000EE100AB8EEC00A0BEEC0BA84ED06BA02
:1042A00094ED000AD4ED030A94ED011A00EE810AA0
:1042B00084ED000A94ED010AD4ED030A94ED061A88
:1042C00000EE810A84ED010ABDEC0C8B10BD10B527
:1042D0002DED028B0446F0EE408AB0EE608AB0EE1F
:1042E000680A2046FFF707FF84ED0B8A2046FFF798
:1042F00074FE94ED110AD4ED120A94ED031A00EE47
:10430000810A84ED110A94ED000AD4ED070A30EE1B
:10431000600A84ED120A94ED010AD4ED080A30EE29
:10432000600A84ED130A2046FFF7AAFDD4ED140AB3
:10433000B0EE600A9FED051ADFED050AFFF708FDF4
:1043400084ED150ABDEC028B10BD0000000048434F
:10435000000048C3CA49097871B9AA280BD1C949D4
:104360000968491CC74A1160C7490870C4490978DF
:10437000491CC34A11702FE1C1490978012910D1A4
:1043800030280AD1C04909780144BF4A1170BC499C
:104390000978491CBA4A11701EE10021B84A11700F
:1043A0001AE1B7490978022910D105280AD1B6497E
:1043B00009780144B44A1170B1490978491CB04ADE
:1043C000117009E10021AE4A117005E1AC4909788C
:1043D00003290CD1AD490870AB4909780144AA4AB8
:1043E0001170A7490978491CA54A1170F4E0A44945
:1043F000097804290FD1A64908700021A54A117037
:10440000A14909780144A04A11709D490978491CC5
:104410009B4A1170E0E09A490978052918D19D4915
:104420000A780978491C9B4B19709B498854964916
:1044300009780144944A117019460978944A12780F
:10444000914298D18E490978491C8D4A1170C3E078
:104450008B490978062979D18B490978814276D12F
:104460008A490978E12936D18B4949788A4A1278F4
:1044700041EA0221894A51808749C978864A92785F
:1044800041EA022285498A8083494979824A127920
:1044900041EA02228149CA807F49C9797E4A9279DC
:1044A00041EA02227D490A814988002989D07B4955
:1044B0008988002985D07949C98814290ADB774978
:1044C000098940F2A462914204DB74494A884A8116
:1044D0008A888A8180E06D490978E22916D16E497F
:1044E00049786D4A127841EA022109B26B4A518239
:1044F0006949C978684A927841EA02210AB2674953
:104500008A8265490A7965498A7565E05F49097853
:10451000E4291DD1604949785F4A127841EA0221B5
:1045200009B25E4A11835C49C9785B4A927841EAD4
:1045300002210AB259494A8357494979564A1279A0
:1045400041EA02210AB255498A8345E041E03CE054
:104550004E490978E3293FD04C490978E5293BD1F8
:104560004D4909784D4AD1834B494A784B490A84D1
:1045700049498A7849494A84B1F91E10642906DDFF
:104580004649C98BA1F5807109B2444AD183434998
:10459000B1F92010642906DD4049098CA1F580712C
:1045A0000AB23E490A843D49B1F92210642906DD68
:1045B0003A49498CA1F580710AB238494A84384990
:1045C0000968491C364A116006E000212C4A117026
:1045D00002E000212A4A11707047304A5289028055
:1045E0002E4A92890A8070472C48C08B80B270474F
:1045F0002A48008C80B270472848B0F912007047F2
:104600002648B0F9140070472448408C08B10120B6
:1046100070470020FCE72348007855282FD1214817
:10462000407AAA282BD11F4880781E49497840EA51
:1046300001201D4908801B4800791A49C97840EAC1
:1046400001201A490880174880791649497940EABB
:104650000120174908801348007A1249C97940EAB5
:1046600001201449088011480088503800B21249CE
:1046700008800D4800883C3800B210490880704717
:104680003C010020340100204C0100204D0100209D
:104690004A0100204B01002064160020181600205B
:1046A000380100202E2300203E0100204001002080
:1046B0004201002044010020460100204801002062
:1046C00070B504460D46164632462146284609F086
:1046D0000FFA70BD70B504460D46164632462146A7
:1046E000284609F0B7FA70BD10B5BCB000240FE041
:1046F000FE4800EB840090ED000ADFEDFD0A20EE9D
:10470000200ABDEEC00A10EE100A4DF82400641C09
:104710003C2CEDDBF02269466420FFF7D1FF3CB072
:1047200010BD10B5BCB0F02269466420FFF7D2FF7F
:1047300000240FE05DF8240000EE100AB8EE400AF5
:10474000DFEDEB0A80EE201AE84800EB840080EDF4
:10475000001A641C3C2CEDDB3CB010BD704708B562
:10476000022269460020FFF7B5FFBDF80000AA2825
:1047700003D1FFF7D6FFFFF7F1FF08BD08B5002012
:10478000009004226946FFF7A5FF009880B208BD9B
:10479000D84890ED380AD54880ED010AD54890ED0B
:1047A000390AD24880ED020AD24890ED3A0ACF4841
:1047B00080ED030ACF4890ED4A0ACC4880ED040A08
:1047C000CC4890ED4B0AC94880ED050AC94890EDE8
:1047D0004C0AC64880ED060AC64890ED5C0AC348FC
:1047E00080ED070AC34890ED5D0AC04880ED080AD5
:1047F000C04890ED5E0ABD4880ED090ABD4890EDC5
:10480000140ABA4880ED0A0ABA4890ED150AB7486A
:1048100080ED0B0AB74890ED160AB44880ED0C0AFB
:10482000B44890ED020AB14880ED0D0AB14890ED10
:10483000030AAE4880ED0E0AAE4890ED040AAB487C
:1048400080ED0F0AAB4890ED260AA84880ED100ACB
:10485000A84890ED270AA54880ED110AA54890EDDB
:10486000280AA24880ED120AA24890ED800ADFEDE6
:10487000A20A80EE201A9D4880ED131A9D4890ED03
:10488000810A9A4880ED140A9A4890ED820A974866
:1048900080ED150A974890ED6E0A944880ED160A4F
:1048A000944890ED6F0A914880ED170A914890ED79
:1048B000700A8E4880ED180A8E4890EDB60A8B4833
:1048C00080ED190A8B4890EDB70A884880ED1A0AE6
:1048D000884890EDB80A854880ED1B0A854890ED20
:1048E000920A824880ED1C0A824890ED930A7F4824
:1048F00080ED1D0A7F4890ED940A7C4880ED1E0AE9
:10490000704708B5AA200090042269460020FFF7EE
:10491000D7FEFFF73DFFFFF7E7FE08BD10B5FFF735
:104920002DFFAA2802D1FFF71AFF01E0FFF7E9FFE8
:1049300010BD704730B597B000246E4890ED5B0A0B
:104940008DED000A6D48B0F9380000EE100AB8EE9F
:10495000C00A8DED010A6948B0F9400000EE100A66
:10496000B8EEC00A8DED020A6448B0F93C0000EED2
:10497000100AB8EEC00A8DED030A6048B0F92000B5
:1049800000EE100AB8EEC00A8DED040A594890ED09
:104990006D0A8DED050A90ED6C0A8DED060A90ED1D
:1049A000250A8DED070A90EDB40A8DED080A90ED09
:1049B0005A0A8DED090A9DF800202146641C0AA8B8
:1049C00042549DF801202146641C42549DF8022067
:1049D0002146641C42549DF803202146641C425425
:1049E0009DF804202146641C42549DF80520214670
:1049F000641C42549DF806202146641C42549DF8D4
:104A000007202046611CCCB20AA90A549DF8082050
:104A10002046611CCCB20AA90A549DF80920204600
:104A2000611CCCB20AA90A549DF80A202046611CD8
:104A3000CCB20AA90A549DF80B202046611CCCB2C6
:104A40000AA90A549DF80C202046611CCCB20AA980
:104A50000A549DF80D202046611CCCB20AA90A54C4
:104A60009DF80E202046611CCCB20AA90A549DF87C
:104A70000F202046611CCCB20AA90A549DF81020D0
:104A80002046611CCCB20AA90A549DF81120204688
:104A9000611CCCB20AA90A549DF812202046611C60
:104AA000CCB20AA90A549DF813202046611CCCB24E
:104AB0000AA90A549DF814202046611CCCB20AA908
:104AC0000A549DF815202046611CCCB20AA90A544C
:104AD0009DF816202046611CCCB20AA90A549DF804
:104AE00017202046611CCCB20AA909E078160020E4
:104AF00000007A44E80100200000C8421816002097
:104B00000A549DF818202046611CCCB20AA90A5408
:104B10009DF819202046611CCCB20AA90A549DF8C0
:104B20001A202046611CCCB20AA90A549DF81B2009
:104B30002046611CCCB20AA90A549DF81C202046CC
:104B4000611CCCB20AA90A549DF81D202046611CA4
:104B5000CCB20AA90A549DF81E202046611CCCB292
:104B60000AA90A549DF81F202046611CCCB20AA94C
:104B70000A549DF820202046611CCCB20AA90A5490
:104B80009DF821202046611CCCB20AA90A549DF848
:104B900022202046611CCCB20AA90A549DF8232089
:104BA0002046611CCCB20AA90A549DF82420204654
:104BB000611CCCB20AA90A549DF825202046611C2C
:104BC000CCB20AA90A549DF826202046611CCCB21A
:104BD0000AA90A549DF827202046611CCCB20AA9D4
:104BE0000A5400222046611CCCB20AA90A5420466D
:104BF000611CCCB20AA90A5480222046611CCCB2A6
:104C00000AA90A547F222046611CCCB20AA90A5480
:104C1000002504E00AA8405DF94948556D1CA542ED
:104C2000F8D3204604F0A4FF17B030BD704770479A
:104C3000704730B597B00024B7EE000A8DED000A3A
:104C4000B0EE000A8DED010AB0EE080A8DED020A01
:104C500055222146641C0AA8425400222146641CA5
:104C6000425402222146641C425403222146641C01
:104C700042549DF800202146641C42549DF80120B6
:104C80002146641C42549DF802202146641C425473
:104C90009DF803202046611CCCB20AA90A549DF855
:104CA00004202046611CCCB20AA90A549DF80520B4
:104CB0002046611CCCB20AA90A549DF80620204661
:104CC000611CCCB20AA90A549DF807202046611C39
:104CD000CCB20AA90A549DF808202046611CCCB227
:104CE0000AA90A549DF809202046611CCCB20AA9E1
:104CF0000A549DF80A202046611CCCB20AA90A5425
:104D00009DF80B202046611CCCB20AA90A5400224F
:104D10002046611CCCB20AA90A54AA222046611C72
:104D2000CCB20AA90A54002504E00AA8405DB5499E
:104D300048556D1CA542F8D3204604F07BFD17B002
:104D400030BD30B597B00024AF4890F82C0000EE8D
:104D5000100AB8EE400A8DED000AAB4890F82D001D
:104D600000EE100AB8EE400A8DED010AA64890F850
:104D70002E0000EE100AB8EE400A8DED020A552210
:104D80002146641C0AA8425400222146641C425455
:104D900002222146641C425403222146641C4254D0
:104DA0009DF800202146641C42549DF801202146B4
:104DB000641C42549DF802202146641C42549DF814
:104DC00003202046611CCCB20AA90A549DF8042095
:104DD0002046611CCCB20AA90A549DF80520204641
:104DE000611CCCB20AA90A549DF806202046611C19
:104DF000CCB20AA90A549DF807202046611CCCB207
:104E00000AA90A549DF808202046611CCCB20AA9C0
:104E10000A549DF809202046611CCCB20AA90A5404
:104E20009DF80A202046611CCCB20AA90A549DF8BC
:104E30000B202046611CCCB20AA90A54002220464D
:104E4000611CCCB20AA90A54AA222046611CCCB229
:104E50000AA90A54002504E00AA8405D6B49485598
:104E60006D1CA542F8D3204604F06CFC17B030BD91
:104E700010B50446062C17D006DC012C0BD0022CF2
:104E80000CD0032C1CD10CE0072C10D0552C14D0C6
:104E9000F12C15D10EE0FFF754FF12E0FFF7C9FE29
:104EA0000FE0FFF7C5FE0CE0FFF7C1FE09E0FFF7DA
:104EB000BDFE06E0FFF73EFD03E0FFF73AFD00E030
:104EC00000BF00BF10BD10B50022002300BF03E0EB
:104ED000845C1C44E3B2521C8A42F9DB435410BD8B
:104EE000F7B581B00D461646AA2049490870A87842
:104EF000487068788870032703E0E85D4449C85526
:104F00007F1CB742F9DB3446BDF804003C280FDCB7
:104F10004048BDF8041000EB810090ED000ADFED81
:104F20003E0A20EE200ABDEEC00A8DED000A01E027
:104F300000200090AA222046611CCCB234490A54B9
:104F400005222046611CCCB231490A54AF222046CA
:104F5000611CCCB22E490A54E1222046611CCCB21D
:104F60002B490A5406222046611CCCB228490A5417
:104F70009DF805202046611CCCB225490A549DF8B5
:104F800004202046611CCCB221490A549DF803201C
:104F90002046611CCCB21E490A549DF802202046CE
:104FA000611CCCB21A490A549DF801202046611CAC
:104FB000CCB217490A549DF800202046611CCCB29F
:104FC00013490A5488190B21FFF77DFF601C104913
:104FD00081F86300012011490870FFBD3C2800DB07
:104FE000704700EE101AB8EEC00ADFED0B0A80EE33
:104FF000201A084A02EB800282ED001A00BFEFE798
:10500000BA230020F4220020181600204C22002091
:10501000681700207816002000007A444E01002016
:105020002DE9F04F04460E4690460027B8F1010FD7
:105030001DD120790B2845D16079E12842D1002586
:1050400003E0605D3844C7B26D1C701EA842F8DCF6
:10505000205CB84201D0BDE8F08FE079A17940EA48
:105060000129324621464846FFF73AFF2AE0B8F1C7
:10507000020F27D12079062824D1002503E0605DA6
:105080003844C7B26D1C701EA842F8DC205CB842E0
:1050900000D0E0E7A079617940EA012AE0790006D2
:1050A000217A40EA0140617A40EA0120A17A40EA8F
:1050B000010B59465046FFF791FF324621465046B4
:1050C000FFF70EFF00BFC6E710B50446434800785F
:1050D00038B9AA2C05D10120404908704048047015
:1050E0007BE03E480078012807D1AF2C05D1022093
:1050F0003A4908703A4844706FE03848007802280E
:1051000007D1052C05D10320344908703448847038
:1051100063E03248007803280AD1E02C08D104204B
:105120002E49087001202F4908702D48C47054E0A2
:105130002A48007803280AD1E12C08D10420274905
:1051400008700220274908702548C47045E02348AC
:10515000007804280AD105202049087020480471ED
:105160002148047000202149087036E01B4800786F
:10517000052819D11C480078002815DD1A48007848
:10518000401E194908701948007818490978491CC7
:10519000164A1170401D12490C5413480078E0B9AA
:1051A00006200E49087018E00C480078062811D136
:1051B00000200A4908700D480078401D08490C5429
:1051C0000A480078801DC1B2064802780448FFF7FB
:1051D00027FF02E000200149087010BD50010020A7
:1051E000CC170020510100204F0100205201002067
:1051F000F0EE400A654890ED010A80ED000A90ED5E
:10520000020A80ED010A90ED030A80ED020A9FED8B
:10521000600A80EE801A80ED031A5E4890ED010A64
:1052200080ED000A90ED020A80ED010A90ED030A7C
:1052300080ED020A554890ED000A90ED031A30EE19
:10524000010A90ED011AD0ED021A31EE211AF0EEAA
:10525000081A01EE810A4F4890ED001ADFED4E1A50
:1052600001EE810A90ED011ADFED4C1A01EE810A80
:1052700090ED021ADFED4A1A01EE810A80ED030A71
:1052800090ED030A7047F0EE400A404890ED010AA5
:1052900080ED000A90ED020A80ED010A90ED030A0C
:1052A00080ED020A9FED3F0A80EE801A80ED031A1E
:1052B000384890ED010A80ED000A90ED020A80ED79
:1052C000010A90ED030A80ED020A304890ED000AD1
:1052D00090ED031A30EE010A90ED011AD0ED021A9A
:1052E00031EE211AF0EE081A01EE810A294890EDFC
:1052F000001ADFED2D1A01EE810A90ED011ADFEDA3
:105300002B1A01EE810A90ED021ADFED291A01EE47
:10531000810A80ED030A90ED030A704790ED010ABF
:1053200080ED000A90ED020A80ED010A90ED060A78
:10533000DFED200A80EE201A80ED021A90ED040ABB
:1053400080ED030A90ED050A80ED040A90ED000A55
:10535000D0ED020A30EE200AD0ED010AB0EE001ABC
:1053600001EE200AD0ED030A9FED131A01EE200A88
:10537000D0ED040A9FED111A01EE200A80ED050A16
:1053800090ED050A80ED070A704700000018002024
:10539000AF9BF74B101800209ACD7C3F84653EC030
:1053A0001D323F406D85AC431736083F20F5F6BFF0
:1053B0002BF1174067BFFF42021944BF7E0BDE3F4F
:1053C00010B52DED0C8B03F0D7FD03F0E5FD9948EA
:1053D00080ED000A03F0DCFD974880ED000A974855
:1053E00090ED001A9648D0ED000A924890ED000A20
:1053F00003F0D6FD934880ED000A90ED000A924834
:1054000080ED420A90ED430ADFED900A20EE200A7B
:10541000D0ED420A9FED8E1A00EE810A80ED430A1C
:1054200090ED440ADFED890A20EE200AD0ED430A10
:105430009FED871A00EE810A80ED440A90ED440A40
:10544000D0ED450A30EE600AF1EE040A80EE201A33
:105450009FED800A21EE000A80ED460A90ED440A95
:1054600080ED450A90ED470ADFED780A20EE200A2C
:10547000D0ED460A9FED761A00EE810A80ED470ACC
:1054800090ED480ADFED740A20EE200AD0ED470ABD
:105490009FED721A00EE810A80ED480A6948D0ED4E
:1054A000000A9FED6F1A60EE810AB0EE600A01F00B
:1054B000E3FF654890ED641AF0EE410A90ED631A3F
:1054C000B0EE410A02F09AF8664890ED0F0AB0F982
:1054D000140000EE900AF8EEE00A9FED631A00EE69
:1054E000810A604880ED0F0A90ED100AB0F91600AD
:1054F00000EE900AF8EEE00A9FED5B1A00EE810ADA
:10550000584880ED100A0146C86908F008F841ECD7
:10551000180B9FED560B53EC102B08F039F82ED2D8
:105520005048C069B4282AD25248006808F004F8EC
:1055300041EC190B5048006807F0FEFF41EC1B0BD3
:105540004849C86907F0EBFF41EC1D0B9FED470B85
:1055500053EC102B07F0F1FE41EC1C0B53EC1B2B12
:1055600007F0EBFE41EC1A0B53EC192B07F0E5FEAC
:1055700041EC180B08F024F83349C1F848013248CF
:1055800090ED520ADFED3D0AB4EEE00AF1EE10FABA
:105590000DDD90ED520AF7EE080AB4EEE00AF1EEE6
:1055A00010FA04D290ED520A354880ED000A2648E0
:1055B00090ED520ADFED310AB4EEE00AF1EE10FA96
:1055C0000DDD90ED520AF7EE080AB4EEE00AF1EEB6
:1055D00010FA04D290ED520A80ED540A04E01A4801
:1055E00090ED540A80ED540A174890ED540AD0ED1E
:1055F000550A70EE600AB1EE041A80EE810ADFED02
:10560000150A20EE200A80ED560A90ED540A80ED2E
:10561000550A90ED580ADFED0D0A20EE200AD0ED74
:10562000560A9FED0B1A00EE810A80ED580ABDEC78
:105630000C8B10BDD4000020D8000020CC0000202E
:10564000D0000020DC000020401300206666663F8A
:10565000CDCCCC3D00007A443333733FCDCC4C3DB0
:105660000000C842501900200AD7A33B7B14AE4764
:10567000E17A843F5C050020600500200AD7233CC6
:105680005801002070B52DED108B86B0F0EE408AE9
:10569000B0EE609AF0EE419AB0EE61BAB0EE42AA76
:1056A000F0EE62AA04460D4616462BEE0B0A0AEEF1
:1056B0000A0A0AEEAA0A10EE101A084607F03CFF82
:1056C000CDE904019DED040B0AF03AF8B0EE40CAB2
:1056D000F0EE60CA51EC1C0B07F072FF08EE100AE6
:1056E0008BEE080AB0EE40BA8AEE080AB0EE40AA85
:1056F0008AEE880AF0EE40AAFE4890ED000AFE48C5
:10570000D0ED000A20EE200AFC48D0ED000AFC484B
:1057100090ED001A00EEC10AF0EE000A20EE200A19
:10572000F0EE40BAF54890ED000AF248D0ED000ADC
:1057300020EE200AF248D0ED000AEF4890ED001A62
:1057400000EE810AF0EE000A20EE200AB0EE40DA08
:10575000EA4890ED000A20EE000AE648D0ED000A83
:1057600090ED001A00EEC10AE548D0ED000A90ED78
:10577000001A00EEC10AE048D0ED000A90ED001AD0
:1057800000EE810AF0EE40DA2AEE2D0A0AEECD0A8A
:10579000B0EE40EA2AEEAB0A0BEE6D0AF0EE40EAFC
:1057A0002BEE0D0A0AEE6B0AB0EE40FAD54890EDEA
:1057B000000AD548D0ED000A0EEE200AD14880ED4F
:1057C000000AD24890ED000ACF48D0ED000A0EEE54
:1057D000A00ACE4880ED000ACD4890ED000ACA48E4
:1057E000D0ED000A0FEE200AC94880ED000AC94832
:1057F000D0ED000AB0EE680A00EE8E0AC148D0ED86
:10580000000A30EE200AF0EE408AC248D0ED000ACD
:10581000B0EE490A00EEAE0ABC48D0ED000A30EE08
:10582000200AB0EE409ABB48D0ED000AB0EE690AFB
:1058300000EE8F0AB648D0ED000A30EE200AF0EEF6
:10584000409AAC4890ED000AB1EE400A20EE280ADA
:10585000AB48D0ED000A00EEC90AA748D0ED000A17
:1058600000EEE90AA548D0ED000A9FEDAB1A40EE24
:10587000010AC0ED000A90ED000A20EE280AA048B7
:10588000D0ED000A00EEA90A9B48D0ED000A00EE18
:10589000C90A9848D0ED000A9FED9F1A40EE010A10
:1058A000C0ED000A954890ED000A20EE090A9148E3
:1058B000D0ED000A00EEE90A8F48D0ED000A00EEB4
:1058C000A80A8F48D0ED000A9FED931A40EE010A16
:1058D000C0ED000A894890ED000A20EE290A8548AB
:1058E000D0ED000A00EE890A8548D0ED000A00EEEE
:1058F000E80A8148D0ED000A9FED871A40EE010AC0
:10590000C0ED000A7D4890ED000A20EE000A7948BB
:10591000D0ED000A90ED001A00EE810A7848D0ED33
:10592000000A90ED001A00EE810A7348D0ED000ADB
:1059300090ED001A00EE810A10EE101A084607F0EA
:10594000FBFDCDE904019DED040B09F0F9FEB0EE7D
:1059500040CAF0EE60CA51EC1C0B07F031FE08EEB5
:10596000100A664890ED000AC0EE080AC0ED000A71
:10597000604890ED000AC0EE080AC0ED000A6048D9
:1059800090ED000AC0EE080AC0ED000A5A4890EDFA
:10599000000AC0EE080AC0ED000A564890ED000A61
:1059A000F8EE000A20EE200A5348D0ED000A20EE5F
:1059B000200A5248D0ED000AB0EE001A60EE810ACB
:1059C0004F4890ED001A00EE810A10EE101A0846BA
:1059D00007F0B2FDCDE902019DED020B08F0F8FCE5
:1059E0008DED040B9FED4D0B53EC102B9DED040B37
:1059F00051EC100B07F0A1FC41EC1C0B07F0E0FD93
:105A000020603C4890ED000AF8EE000A20EE200AE3
:105A1000D0ED000A20EE200A3948D0ED000AB0EEA1
:105A2000001A60EE810A90ED001A00EEC10AF7EE4E
:105A3000000A30EE200A10EE101A084607F07CFD2E
:105A400041EC1C0B2E4890ED000AF0EE000A20EE0F
:105A5000200A2948D0ED000A20EE200A2748D0ED80
:105A6000000AB0EE001A60EE810A224890ED001A9A
:105A700000EE810A10EE101A084607F05DFDB0EE48
:105A80004C1AF0EE6C1ACDE900019DED000B08F008
:105A9000BBFF8DED020B9FED210B53EC102B9DED09
:105AA000020B51EC100B07F048FCCDE904019DED11
:105AB000040B51EC100B07F083FD28600F4890EDAC
:105AC000000A20EE000A0B48D0ED000A90ED001A03
:105AD00000EE810A0A48D0ED000A90ED001A00EEAF
